{"contracts/Subscription.sol":{"SubscriptionContract":{"abi":[{"inputs":[{"internalType":"address","name":"_priceFeed","type":"address"}],"stateMutability":"nonpayable","type":"constructor"},{"anonymous":false,"inputs":[{"indexed":true,"internalType":"address","name":"subscriber","type":"address"},{"indexed":false,"internalType":"uint256","name":"timestamp","type":"uint256"}],"name":"SubscriptionCancelled","type":"event"},{"anonymous":false,"inputs":[{"indexed":true,"internalType":"address","name":"subscriber","type":"address"},{"indexed":false,"internalType":"uint256","name":"timestamp","type":"uint256"}],"name":"SubscriptionRenewed","type":"event"},{"inputs":[{"internalType":"address","name":"subscriber","type":"address"}],"name":"isSubscribed","outputs":[{"internalType":"bool","name":"","type":"bool"}],"stateMutability":"view","type":"function"},{"inputs":[],"name":"owner","outputs":[{"internalType":"address","name":"","type":"address"}],"stateMutability":"view","type":"function"},{"inputs":[],"name":"priceFeed","outputs":[{"internalType":"contract AggregatorV3Interface","name":"","type":"address"}],"stateMutability":"view","type":"function"},{"inputs":[{"internalType":"uint256","name":"newFee","type":"uint256"}],"name":"setSubscriptionFee","outputs":[],"stateMutability":"nonpayable","type":"function"},{"inputs":[],"name":"subscribe","outputs":[],"stateMutability":"nonpayable","type":"function"},{"inputs":[{"internalType":"address","name":"","type":"address"}],"name":"subscribers","outputs":[{"internalType":"bool","name":"","type":"bool"}],"stateMutability":"view","type":"function"},{"inputs":[],"name":"subscriptionFee","outputs":[{"internalType":"uint256","name":"","type":"uint256"}],"stateMutability":"view","type":"function"},{"inputs":[],"name":"unsubscribe","outputs":[],"stateMutability":"nonpayable","type":"function"}],"evm":{"bytecode":{"linkReferences":{},"object":"608060405234801561001057600080fd5b5060405161066038038061066083398101604081905261002f91610070565b60008054336001600160a01b03199182161790915569021d8f19a6b628580000600255600380549091166001600160a01b03929092169190911790556100a0565b60006020828403121561008257600080fd5b81516001600160a01b038116811461009957600080fd5b9392505050565b6105b1806100af6000396000f3fe608060405234801561001057600080fd5b50600436106100785760003560e01c80630aa0a1751461007d5780635745ae28146100995780636ac84956146100cc578063741bef1a146100e15780638da5cb5b1461010c5780638f449a051461011f578063b92ae87c14610127578063fcae448414610153575b600080fd5b61008660025481565b6040519081526020015b60405180910390f35b6100bc6100a7366004610477565b60016020526000908152604090205460ff1681565b6040519015158152602001610090565b6100df6100da3660046104a7565b61015b565b005b6003546100f4906001600160a01b031681565b6040516001600160a01b039091168152602001610090565b6000546100f4906001600160a01b031681565b6100df6101d6565b6100bc610135366004610477565b6001600160a01b031660009081526001602052604090205460ff1690565b6100df6102d6565b6000546001600160a01b031633146101d15760405162461bcd60e51b815260206004820152602e60248201527f4f6e6c792074686520636f6e7472616374206f776e65722063616e2063616c6c60448201526d103a3434b990333ab731ba34b7b760911b60648201526084015b60405180910390fd5b600255565b3360009081526001602052604090205460ff161561022b5760405162461bcd60e51b8152602060048201526012602482015271105b1c9958591e481cdd589cd8dc9a58995960721b60448201526064016101c8565b60025461023661036f565b10156102845760405162461bcd60e51b815260206004820152601f60248201527f496e73756666696369656e742066756e647320746f207375627363726962650060448201526064016101c8565b33600081815260016020818152604092839020805460ff191690921790915590514281527f0e3bc79b6527253ae333c773455df588f62bcc1ad9726d42dbdc179356232a6091015b60405180910390a2565b3360009081526001602052604090205460ff166103265760405162461bcd60e51b815260206004820152600e60248201526d139bdd081cdd589cd8dc9a58995960921b60448201526064016101c8565b3360008181526001602052604090819020805460ff19169055517f06aa12c0ad65927b4a753d119c26e490d3c4a4e11cb631b43131a709dc1e5917906102cc9042815260200190565b600080600360009054906101000a90046001600160a01b03166001600160a01b031663feaf968c6040518163ffffffff1660e01b815260040160a06040518083038186803b1580156103c057600080fd5b505afa1580156103d4573d6000803e3d6000fd5b505050506040513d601f19601f820116820180604052508101906103f891906104dc565b505050915050600081136104435760405162461bcd60e51b8152602060048201526012602482015271125b9d985b1a59081c1c9a58d9481999595960721b60448201526064016101c8565b600061045082606461052c565b90506305f5e100610466826402540be40061052c565b6104709190610559565b9250505090565b60006020828403121561048957600080fd5b81356001600160a01b03811681146104a057600080fd5b9392505050565b6000602082840312156104b957600080fd5b5035919050565b80516001600160501b03811681146104d757600080fd5b919050565b600080600080600060a086880312156104f457600080fd5b6104fd866104c0565b9450602086015193506040860151925060608601519150610520608087016104c0565b90509295509295909350565b600081600019048311821515161561055457634e487b7160e01b600052601160045260246000fd5b500290565b60008261057657634e487b7160e01b600052601260045260246000fd5b50049056fea264697066735822122058a8527e67a8151f623449cb82c8a53e43df547d0e0f840733cbbcdbaebd8c0c64736f6c63430008090033","opcodes":"PUSH1 0x80 PUSH1 0x40 MSTORE CALLVALUE DUP1 ISZERO PUSH2 0x10 JUMPI PUSH1 0x0 DUP1 REVERT JUMPDEST POP PUSH1 0x40 MLOAD PUSH2 0x660 CODESIZE SUB DUP1 PUSH2 0x660 DUP4 CODECOPY DUP2 ADD PUSH1 0x40 DUP2 SWAP1 MSTORE PUSH2 0x2F SWAP2 PUSH2 0x70 JUMP JUMPDEST PUSH1 0x0 DUP1 SLOAD CALLER PUSH1 0x1 PUSH1 0x1 PUSH1 0xA0 SHL SUB NOT SWAP2 DUP3 AND OR SWAP1 SWAP2 SSTORE PUSH10 0x21D8F19A6B628580000 PUSH1 0x2 SSTORE PUSH1 0x3 DUP1 SLOAD SWAP1 SWAP2 AND PUSH1 0x1 PUSH1 0x1 PUSH1 0xA0 SHL SUB SWAP3 SWAP1 SWAP3 AND SWAP2 SWAP1 SWAP2 OR SWAP1 SSTORE PUSH2 0xA0 JUMP JUMPDEST PUSH1 0x0 PUSH1 0x20 DUP3 DUP5 SUB SLT ISZERO PUSH2 0x82 JUMPI PUSH1 0x0 DUP1 REVERT JUMPDEST DUP2 MLOAD PUSH1 0x1 PUSH1 0x1 PUSH1 0xA0 SHL SUB DUP2 AND DUP2 EQ PUSH2 0x99 JUMPI PUSH1 0x0 DUP1 REVERT JUMPDEST SWAP4 SWAP3 POP POP POP JUMP JUMPDEST PUSH2 0x5B1 DUP1 PUSH2 0xAF PUSH1 0x0 CODECOPY PUSH1 0x0 RETURN INVALID PUSH1 0x80 PUSH1 0x40 MSTORE CALLVALUE DUP1 ISZERO PUSH2 0x10 JUMPI PUSH1 0x0 DUP1 REVERT JUMPDEST POP PUSH1 0x4 CALLDATASIZE LT PUSH2 0x78 JUMPI PUSH1 0x0 CALLDATALOAD PUSH1 0xE0 SHR DUP1 PUSH4 0xAA0A175 EQ PUSH2 0x7D JUMPI DUP1 PUSH4 0x5745AE28 EQ PUSH2 0x99 JUMPI DUP1 PUSH4 0x6AC84956 EQ PUSH2 0xCC JUMPI DUP1 PUSH4 0x741BEF1A EQ PUSH2 0xE1 JUMPI DUP1 PUSH4 0x8DA5CB5B EQ PUSH2 0x10C JUMPI DUP1 PUSH4 0x8F449A05 EQ PUSH2 0x11F JUMPI DUP1 PUSH4 0xB92AE87C EQ PUSH2 0x127 JUMPI DUP1 PUSH4 0xFCAE4484 EQ PUSH2 0x153 JUMPI JUMPDEST PUSH1 0x0 DUP1 REVERT JUMPDEST PUSH2 0x86 PUSH1 0x2 SLOAD DUP2 JUMP JUMPDEST PUSH1 0x40 MLOAD SWAP1 DUP2 MSTORE PUSH1 0x20 ADD JUMPDEST PUSH1 0x40 MLOAD DUP1 SWAP2 SUB SWAP1 RETURN JUMPDEST PUSH2 0xBC PUSH2 0xA7 CALLDATASIZE PUSH1 0x4 PUSH2 0x477 JUMP JUMPDEST PUSH1 0x1 PUSH1 0x20 MSTORE PUSH1 0x0 SWAP1 DUP2 MSTORE PUSH1 0x40 SWAP1 KECCAK256 SLOAD PUSH1 0xFF AND DUP2 JUMP JUMPDEST PUSH1 0x40 MLOAD SWAP1 ISZERO ISZERO DUP2 MSTORE PUSH1 0x20 ADD PUSH2 0x90 JUMP JUMPDEST PUSH2 0xDF PUSH2 0xDA CALLDATASIZE PUSH1 0x4 PUSH2 0x4A7 JUMP JUMPDEST PUSH2 0x15B JUMP JUMPDEST STOP JUMPDEST PUSH1 0x3 SLOAD PUSH2 0xF4 SWAP1 PUSH1 0x1 PUSH1 0x1 PUSH1 0xA0 SHL SUB AND DUP2 JUMP JUMPDEST PUSH1 0x40 MLOAD PUSH1 0x1 PUSH1 0x1 PUSH1 0xA0 SHL SUB SWAP1 SWAP2 AND DUP2 MSTORE PUSH1 0x20 ADD PUSH2 0x90 JUMP JUMPDEST PUSH1 0x0 SLOAD PUSH2 0xF4 SWAP1 PUSH1 0x1 PUSH1 0x1 PUSH1 0xA0 SHL SUB AND DUP2 JUMP JUMPDEST PUSH2 0xDF PUSH2 0x1D6 JUMP JUMPDEST PUSH2 0xBC PUSH2 0x135 CALLDATASIZE PUSH1 0x4 PUSH2 0x477 JUMP JUMPDEST PUSH1 0x1 PUSH1 0x1 PUSH1 0xA0 SHL SUB AND PUSH1 0x0 SWAP1 DUP2 MSTORE PUSH1 0x1 PUSH1 0x20 MSTORE PUSH1 0x40 SWAP1 KECCAK256 SLOAD PUSH1 0xFF AND SWAP1 JUMP JUMPDEST PUSH2 0xDF PUSH2 0x2D6 JUMP JUMPDEST PUSH1 0x0 SLOAD PUSH1 0x1 PUSH1 0x1 PUSH1 0xA0 SHL SUB AND CALLER EQ PUSH2 0x1D1 JUMPI PUSH1 0x40 MLOAD PUSH3 0x461BCD PUSH1 0xE5 SHL DUP2 MSTORE PUSH1 0x20 PUSH1 0x4 DUP3 ADD MSTORE PUSH1 0x2E PUSH1 0x24 DUP3 ADD MSTORE PUSH32 0x4F6E6C792074686520636F6E7472616374206F776E65722063616E2063616C6C PUSH1 0x44 DUP3 ADD MSTORE PUSH14 0x103A3434B990333AB731BA34B7B7 PUSH1 0x91 SHL PUSH1 0x64 DUP3 ADD MSTORE PUSH1 0x84 ADD JUMPDEST PUSH1 0x40 MLOAD DUP1 SWAP2 SUB SWAP1 REVERT JUMPDEST PUSH1 0x2 SSTORE JUMP JUMPDEST CALLER PUSH1 0x0 SWAP1 DUP2 MSTORE PUSH1 0x1 PUSH1 0x20 MSTORE PUSH1 0x40 SWAP1 KECCAK256 SLOAD PUSH1 0xFF AND ISZERO PUSH2 0x22B JUMPI PUSH1 0x40 MLOAD PUSH3 0x461BCD PUSH1 0xE5 SHL DUP2 MSTORE PUSH1 0x20 PUSH1 0x4 DUP3 ADD MSTORE PUSH1 0x12 PUSH1 0x24 DUP3 ADD MSTORE PUSH18 0x105B1C9958591E481CDD589CD8DC9A589959 PUSH1 0x72 SHL PUSH1 0x44 DUP3 ADD MSTORE PUSH1 0x64 ADD PUSH2 0x1C8 JUMP JUMPDEST PUSH1 0x2 SLOAD PUSH2 0x236 PUSH2 0x36F JUMP JUMPDEST LT ISZERO PUSH2 0x284 JUMPI PUSH1 0x40 MLOAD PUSH3 0x461BCD PUSH1 0xE5 SHL DUP2 MSTORE PUSH1 0x20 PUSH1 0x4 DUP3 ADD MSTORE PUSH1 0x1F PUSH1 0x24 DUP3 ADD MSTORE PUSH32 0x496E73756666696369656E742066756E647320746F2073756273637269626500 PUSH1 0x44 DUP3 ADD MSTORE PUSH1 0x64 ADD PUSH2 0x1C8 JUMP JUMPDEST CALLER PUSH1 0x0 DUP2 DUP2 MSTORE PUSH1 0x1 PUSH1 0x20 DUP2 DUP2 MSTORE PUSH1 0x40 SWAP3 DUP4 SWAP1 KECCAK256 DUP1 SLOAD PUSH1 0xFF NOT AND SWAP1 SWAP3 OR SWAP1 SWAP2 SSTORE SWAP1 MLOAD TIMESTAMP DUP2 MSTORE PUSH32 0xE3BC79B6527253AE333C773455DF588F62BCC1AD9726D42DBDC179356232A60 SWAP2 ADD JUMPDEST PUSH1 0x40 MLOAD DUP1 SWAP2 SUB SWAP1 LOG2 JUMP JUMPDEST CALLER PUSH1 0x0 SWAP1 DUP2 MSTORE PUSH1 0x1 PUSH1 0x20 MSTORE PUSH1 0x40 SWAP1 KECCAK256 SLOAD PUSH1 0xFF AND PUSH2 0x326 JUMPI PUSH1 0x40 MLOAD PUSH3 0x461BCD PUSH1 0xE5 SHL DUP2 MSTORE PUSH1 0x20 PUSH1 0x4 DUP3 ADD MSTORE PUSH1 0xE PUSH1 0x24 DUP3 ADD MSTORE PUSH14 0x139BDD081CDD589CD8DC9A589959 PUSH1 0x92 SHL PUSH1 0x44 DUP3 ADD MSTORE PUSH1 0x64 ADD PUSH2 0x1C8 JUMP JUMPDEST CALLER PUSH1 0x0 DUP2 DUP2 MSTORE PUSH1 0x1 PUSH1 0x20 MSTORE PUSH1 0x40 SWAP1 DUP2 SWAP1 KECCAK256 DUP1 SLOAD PUSH1 0xFF NOT AND SWAP1 SSTORE MLOAD PUSH32 0x6AA12C0AD65927B4A753D119C26E490D3C4A4E11CB631B43131A709DC1E5917 SWAP1 PUSH2 0x2CC SWAP1 TIMESTAMP DUP2 MSTORE PUSH1 0x20 ADD SWAP1 JUMP JUMPDEST PUSH1 0x0 DUP1 PUSH1 0x3 PUSH1 0x0 SWAP1 SLOAD SWAP1 PUSH2 0x100 EXP SWAP1 DIV PUSH1 0x1 PUSH1 0x1 PUSH1 0xA0 SHL SUB AND PUSH1 0x1 PUSH1 0x1 PUSH1 0xA0 SHL SUB AND PUSH4 0xFEAF968C PUSH1 0x40 MLOAD DUP2 PUSH4 0xFFFFFFFF AND PUSH1 0xE0 SHL DUP2 MSTORE PUSH1 0x4 ADD PUSH1 0xA0 PUSH1 0x40 MLOAD DUP1 DUP4 SUB DUP2 DUP7 DUP1 EXTCODESIZE ISZERO DUP1 ISZERO PUSH2 0x3C0 JUMPI PUSH1 0x0 DUP1 REVERT JUMPDEST POP GAS STATICCALL ISZERO DUP1 ISZERO PUSH2 0x3D4 JUMPI RETURNDATASIZE PUSH1 0x0 DUP1 RETURNDATACOPY RETURNDATASIZE PUSH1 0x0 REVERT JUMPDEST POP POP POP POP PUSH1 0x40 MLOAD RETURNDATASIZE PUSH1 0x1F NOT PUSH1 0x1F DUP3 ADD AND DUP3 ADD DUP1 PUSH1 0x40 MSTORE POP DUP2 ADD SWAP1 PUSH2 0x3F8 SWAP2 SWAP1 PUSH2 0x4DC JUMP JUMPDEST POP POP POP SWAP2 POP POP PUSH1 0x0 DUP2 SGT PUSH2 0x443 JUMPI PUSH1 0x40 MLOAD PUSH3 0x461BCD PUSH1 0xE5 SHL DUP2 MSTORE PUSH1 0x20 PUSH1 0x4 DUP3 ADD MSTORE PUSH1 0x12 PUSH1 0x24 DUP3 ADD MSTORE PUSH18 0x125B9D985B1A59081C1C9A58D94819995959 PUSH1 0x72 SHL PUSH1 0x44 DUP3 ADD MSTORE PUSH1 0x64 ADD PUSH2 0x1C8 JUMP JUMPDEST PUSH1 0x0 PUSH2 0x450 DUP3 PUSH1 0x64 PUSH2 0x52C JUMP JUMPDEST SWAP1 POP PUSH4 0x5F5E100 PUSH2 0x466 DUP3 PUSH5 0x2540BE400 PUSH2 0x52C JUMP JUMPDEST PUSH2 0x470 SWAP2 SWAP1 PUSH2 0x559 JUMP JUMPDEST SWAP3 POP POP POP SWAP1 JUMP JUMPDEST PUSH1 0x0 PUSH1 0x20 DUP3 DUP5 SUB SLT ISZERO PUSH2 0x489 JUMPI PUSH1 0x0 DUP1 REVERT JUMPDEST DUP2 CALLDATALOAD PUSH1 0x1 PUSH1 0x1 PUSH1 0xA0 SHL SUB DUP2 AND DUP2 EQ PUSH2 0x4A0 JUMPI PUSH1 0x0 DUP1 REVERT JUMPDEST SWAP4 SWAP3 POP POP POP JUMP JUMPDEST PUSH1 0x0 PUSH1 0x20 DUP3 DUP5 SUB SLT ISZERO PUSH2 0x4B9 JUMPI PUSH1 0x0 DUP1 REVERT JUMPDEST POP CALLDATALOAD SWAP2 SWAP1 POP JUMP JUMPDEST DUP1 MLOAD PUSH1 0x1 PUSH1 0x1 PUSH1 0x50 SHL SUB DUP2 AND DUP2 EQ PUSH2 0x4D7 JUMPI PUSH1 0x0 DUP1 REVERT JUMPDEST SWAP2 SWAP1 POP JUMP JUMPDEST PUSH1 0x0 DUP1 PUSH1 0x0 DUP1 PUSH1 0x0 PUSH1 0xA0 DUP7 DUP9 SUB SLT ISZERO PUSH2 0x4F4 JUMPI PUSH1 0x0 DUP1 REVERT JUMPDEST PUSH2 0x4FD DUP7 PUSH2 0x4C0 JUMP JUMPDEST SWAP5 POP PUSH1 0x20 DUP7 ADD MLOAD SWAP4 POP PUSH1 0x40 DUP7 ADD MLOAD SWAP3 POP PUSH1 0x60 DUP7 ADD MLOAD SWAP2 POP PUSH2 0x520 PUSH1 0x80 DUP8 ADD PUSH2 0x4C0 JUMP JUMPDEST SWAP1 POP SWAP3 SWAP6 POP SWAP3 SWAP6 SWAP1 SWAP4 POP JUMP JUMPDEST PUSH1 0x0 DUP2 PUSH1 0x0 NOT DIV DUP4 GT DUP3 ISZERO ISZERO AND ISZERO PUSH2 0x554 JUMPI PUSH4 0x4E487B71 PUSH1 0xE0 SHL PUSH1 0x0 MSTORE PUSH1 0x11 PUSH1 0x4 MSTORE PUSH1 0x24 PUSH1 0x0 REVERT JUMPDEST POP MUL SWAP1 JUMP JUMPDEST PUSH1 0x0 DUP3 PUSH2 0x576 JUMPI PUSH4 0x4E487B71 PUSH1 0xE0 SHL PUSH1 0x0 MSTORE PUSH1 0x12 PUSH1 0x4 MSTORE PUSH1 0x24 PUSH1 0x0 REVERT JUMPDEST POP DIV SWAP1 JUMP INVALID LOG2 PUSH5 0x6970667358 0x22 SLT KECCAK256 PC 0xA8 MSTORE PUSH31 0x67A8151F623449CB82C8A53E43DF547D0E0F840733CBBCDBAEBD8C0C64736F PUSH13 0x63430008090033000000000000 "},"methodIdentifiers":{"isSubscribed(address)":"b92ae87c","owner()":"8da5cb5b","priceFeed()":"741bef1a","setSubscriptionFee(uint256)":"6ac84956","subscribe()":"8f449a05","subscribers(address)":"5745ae28","subscriptionFee()":"0aa0a175","unsubscribe()":"fcae4484"}}}}}