{"contracts/SubscriptionModel.sol":{"SubscriptionModel":{"abi":[{"inputs":[],"stateMutability":"nonpayable","type":"constructor"},{"anonymous":false,"inputs":[{"indexed":false,"internalType":"address","name":"user","type":"address"},{"indexed":false,"internalType":"uint256","name":"amount","type":"uint256"}],"name":"PaymentReceived","type":"event"},{"anonymous":false,"inputs":[{"indexed":false,"internalType":"address","name":"user","type":"address"},{"indexed":false,"internalType":"bool","name":"isSubscribed","type":"bool"}],"name":"SubscriptionStatus","type":"event"},{"inputs":[],"name":"contractOwner","outputs":[{"internalType":"address payable","name":"","type":"address"}],"stateMutability":"view","type":"function"},{"inputs":[],"name":"isSubscribed","outputs":[{"internalType":"bool","name":"","type":"bool"}],"stateMutability":"view","type":"function"},{"inputs":[],"name":"subscribe","outputs":[],"stateMutability":"payable","type":"function"},{"inputs":[],"name":"subscriptionFee","outputs":[{"internalType":"uint256","name":"","type":"uint256"}],"stateMutability":"view","type":"function"},{"inputs":[{"internalType":"address","name":"","type":"address"}],"name":"subscriptions","outputs":[{"internalType":"bool","name":"","type":"bool"}],"stateMutability":"view","type":"function"},{"inputs":[],"name":"unsubscribe","outputs":[],"stateMutability":"nonpayable","type":"function"},{"inputs":[],"name":"withdrawFunds","outputs":[],"stateMutability":"nonpayable","type":"function"}],"evm":{"bytecode":{"linkReferences":{},"object":"60806040526612d452694f400060015534801561001b57600080fd5b50600080546001600160a01b0319163317905561048c8061003d6000396000f3fe6080604052600436106100605760003560e01c80630aa0a1751461006557806324600fc31461008e5780638a281554146100a55780638f449a05146100d6578063ce606ee0146100de578063f046395a14610116578063fcae448414610146575b600080fd5b34801561007157600080fd5b5061007b60015481565b6040519081526020015b60405180910390f35b34801561009a57600080fd5b506100a361015b565b005b3480156100b157600080fd5b503360009081526002602052604090205460ff165b6040519015158152602001610085565b6100a3610249565b3480156100ea57600080fd5b506000546100fe906001600160a01b031681565b6040516001600160a01b039091168152602001610085565b34801561012257600080fd5b506100c66101313660046103eb565b60026020526000908152604090205460ff1681565b34801561015257600080fd5b506100a3610367565b6000546001600160a01b031633146101c95760405162461bcd60e51b815260206004820152602660248201527f4f6e6c7920636f6e7472616374206f776e65722063616e2077697468647261776044820152652066756e647360d01b60648201526084015b60405180910390fd5b478061020c5760405162461bcd60e51b81526020600482015260126024820152714e6f2066756e647320617661696c61626c6560701b60448201526064016101c0565b600080546040516001600160a01b039091169183156108fc02918491818181858888f19350505050158015610245573d6000803e3d6000fd5b5050565b3360009081526002602052604090205460ff161561029e5760405162461bcd60e51b8152602060048201526012602482015271105b1c9958591e481cdd589cd8dc9a58995960721b60448201526064016101c0565b60015434146102e85760405162461bcd60e51b8152602060048201526016602482015275125b9d985b1a59081c185e5b595b9d08185b5bdd5b9d60521b60448201526064016101c0565b3360008181526002602052604090819020805460ff1916600190811790915590516000805160206104378339815191529261032492909161041b565b60405180910390a1604080513381523460208201527f6ef95f06320e7a25a04a175ca677b7052bdd97131872c2192525a629f51be77091015b60405180910390a1565b3360009081526002602052604090205460ff166103b75760405162461bcd60e51b815260206004820152600e60248201526d139bdd081cdd589cd8dc9a58995960921b60448201526064016101c0565b33600081815260026020526040808220805460ff19169055516000805160206104378339815191529261035d92909161041b565b6000602082840312156103fd57600080fd5b81356001600160a01b038116811461041457600080fd5b9392505050565b6001600160a01b03929092168252151560208201526040019056fe31a35ebd9aa06acf1069d1d772d47d82346f1c8a59bf84d45bde66a963485510a2646970667358221220a839d75e385164c52a40f48227670824f4cb37950346356fb7b55e9520b3273564736f6c63430008090033","opcodes":"PUSH1 0x80 PUSH1 0x40 MSTORE PUSH7 0x12D452694F4000 PUSH1 0x1 SSTORE CALLVALUE DUP1 ISZERO PUSH2 0x1B JUMPI PUSH1 0x0 DUP1 REVERT JUMPDEST POP PUSH1 0x0 DUP1 SLOAD PUSH1 0x1 PUSH1 0x1 PUSH1 0xA0 SHL SUB NOT AND CALLER OR SWAP1 SSTORE PUSH2 0x48C DUP1 PUSH2 0x3D PUSH1 0x0 CODECOPY PUSH1 0x0 RETURN INVALID PUSH1 0x80 PUSH1 0x40 MSTORE PUSH1 0x4 CALLDATASIZE LT PUSH2 0x60 JUMPI PUSH1 0x0 CALLDATALOAD PUSH1 0xE0 SHR DUP1 PUSH4 0xAA0A175 EQ PUSH2 0x65 JUMPI DUP1 PUSH4 0x24600FC3 EQ PUSH2 0x8E JUMPI DUP1 PUSH4 0x8A281554 EQ PUSH2 0xA5 JUMPI DUP1 PUSH4 0x8F449A05 EQ PUSH2 0xD6 JUMPI DUP1 PUSH4 0xCE606EE0 EQ PUSH2 0xDE JUMPI DUP1 PUSH4 0xF046395A EQ PUSH2 0x116 JUMPI DUP1 PUSH4 0xFCAE4484 EQ PUSH2 0x146 JUMPI JUMPDEST PUSH1 0x0 DUP1 REVERT JUMPDEST CALLVALUE DUP1 ISZERO PUSH2 0x71 JUMPI PUSH1 0x0 DUP1 REVERT JUMPDEST POP PUSH2 0x7B PUSH1 0x1 SLOAD DUP2 JUMP JUMPDEST PUSH1 0x40 MLOAD SWAP1 DUP2 MSTORE PUSH1 0x20 ADD JUMPDEST PUSH1 0x40 MLOAD DUP1 SWAP2 SUB SWAP1 RETURN JUMPDEST CALLVALUE DUP1 ISZERO PUSH2 0x9A JUMPI PUSH1 0x0 DUP1 REVERT JUMPDEST POP PUSH2 0xA3 PUSH2 0x15B JUMP JUMPDEST STOP JUMPDEST CALLVALUE DUP1 ISZERO PUSH2 0xB1 JUMPI PUSH1 0x0 DUP1 REVERT JUMPDEST POP CALLER PUSH1 0x0 SWAP1 DUP2 MSTORE PUSH1 0x2 PUSH1 0x20 MSTORE PUSH1 0x40 SWAP1 KECCAK256 SLOAD PUSH1 0xFF AND JUMPDEST PUSH1 0x40 MLOAD SWAP1 ISZERO ISZERO DUP2 MSTORE PUSH1 0x20 ADD PUSH2 0x85 JUMP JUMPDEST PUSH2 0xA3 PUSH2 0x249 JUMP JUMPDEST CALLVALUE DUP1 ISZERO PUSH2 0xEA JUMPI PUSH1 0x0 DUP1 REVERT JUMPDEST POP PUSH1 0x0 SLOAD PUSH2 0xFE SWAP1 PUSH1 0x1 PUSH1 0x1 PUSH1 0xA0 SHL SUB AND DUP2 JUMP JUMPDEST PUSH1 0x40 MLOAD PUSH1 0x1 PUSH1 0x1 PUSH1 0xA0 SHL SUB SWAP1 SWAP2 AND DUP2 MSTORE PUSH1 0x20 ADD PUSH2 0x85 JUMP JUMPDEST CALLVALUE DUP1 ISZERO PUSH2 0x122 JUMPI PUSH1 0x0 DUP1 REVERT JUMPDEST POP PUSH2 0xC6 PUSH2 0x131 CALLDATASIZE PUSH1 0x4 PUSH2 0x3EB JUMP JUMPDEST PUSH1 0x2 PUSH1 0x20 MSTORE PUSH1 0x0 SWAP1 DUP2 MSTORE PUSH1 0x40 SWAP1 KECCAK256 SLOAD PUSH1 0xFF AND DUP2 JUMP JUMPDEST CALLVALUE DUP1 ISZERO PUSH2 0x152 JUMPI PUSH1 0x0 DUP1 REVERT JUMPDEST POP PUSH2 0xA3 PUSH2 0x367 JUMP JUMPDEST PUSH1 0x0 SLOAD PUSH1 0x1 PUSH1 0x1 PUSH1 0xA0 SHL SUB AND CALLER EQ PUSH2 0x1C9 JUMPI PUSH1 0x40 MLOAD PUSH3 0x461BCD PUSH1 0xE5 SHL DUP2 MSTORE PUSH1 0x20 PUSH1 0x4 DUP3 ADD MSTORE PUSH1 0x26 PUSH1 0x24 DUP3 ADD MSTORE PUSH32 0x4F6E6C7920636F6E7472616374206F776E65722063616E207769746864726177 PUSH1 0x44 DUP3 ADD MSTORE PUSH6 0x2066756E6473 PUSH1 0xD0 SHL PUSH1 0x64 DUP3 ADD MSTORE PUSH1 0x84 ADD JUMPDEST PUSH1 0x40 MLOAD DUP1 SWAP2 SUB SWAP1 REVERT JUMPDEST SELFBALANCE DUP1 PUSH2 0x20C JUMPI PUSH1 0x40 MLOAD PUSH3 0x461BCD PUSH1 0xE5 SHL DUP2 MSTORE PUSH1 0x20 PUSH1 0x4 DUP3 ADD MSTORE PUSH1 0x12 PUSH1 0x24 DUP3 ADD MSTORE PUSH18 0x4E6F2066756E647320617661696C61626C65 PUSH1 0x70 SHL PUSH1 0x44 DUP3 ADD MSTORE PUSH1 0x64 ADD PUSH2 0x1C0 JUMP JUMPDEST PUSH1 0x0 DUP1 SLOAD PUSH1 0x40 MLOAD PUSH1 0x1 PUSH1 0x1 PUSH1 0xA0 SHL SUB SWAP1 SWAP2 AND SWAP2 DUP4 ISZERO PUSH2 0x8FC MUL SWAP2 DUP5 SWAP2 DUP2 DUP2 DUP2 DUP6 DUP9 DUP9 CALL SWAP4 POP POP POP POP ISZERO DUP1 ISZERO PUSH2 0x245 JUMPI RETURNDATASIZE PUSH1 0x0 DUP1 RETURNDATACOPY RETURNDATASIZE PUSH1 0x0 REVERT JUMPDEST POP POP JUMP JUMPDEST CALLER PUSH1 0x0 SWAP1 DUP2 MSTORE PUSH1 0x2 PUSH1 0x20 MSTORE PUSH1 0x40 SWAP1 KECCAK256 SLOAD PUSH1 0xFF AND ISZERO PUSH2 0x29E JUMPI PUSH1 0x40 MLOAD PUSH3 0x461BCD PUSH1 0xE5 SHL DUP2 MSTORE PUSH1 0x20 PUSH1 0x4 DUP3 ADD MSTORE PUSH1 0x12 PUSH1 0x24 DUP3 ADD MSTORE PUSH18 0x105B1C9958591E481CDD589CD8DC9A589959 PUSH1 0x72 SHL PUSH1 0x44 DUP3 ADD MSTORE PUSH1 0x64 ADD PUSH2 0x1C0 JUMP JUMPDEST PUSH1 0x1 SLOAD CALLVALUE EQ PUSH2 0x2E8 JUMPI PUSH1 0x40 MLOAD PUSH3 0x461BCD PUSH1 0xE5 SHL DUP2 MSTORE PUSH1 0x20 PUSH1 0x4 DUP3 ADD MSTORE PUSH1 0x16 PUSH1 0x24 DUP3 ADD MSTORE PUSH22 0x125B9D985B1A59081C185E5B595B9D08185B5BDD5B9D PUSH1 0x52 SHL PUSH1 0x44 DUP3 ADD MSTORE PUSH1 0x64 ADD PUSH2 0x1C0 JUMP JUMPDEST CALLER PUSH1 0x0 DUP2 DUP2 MSTORE PUSH1 0x2 PUSH1 0x20 MSTORE PUSH1 0x40 SWAP1 DUP2 SWAP1 KECCAK256 DUP1 SLOAD PUSH1 0xFF NOT AND PUSH1 0x1 SWAP1 DUP2 OR SWAP1 SWAP2 SSTORE SWAP1 MLOAD PUSH1 0x0 DUP1 MLOAD PUSH1 0x20 PUSH2 0x437 DUP4 CODECOPY DUP2 MLOAD SWAP2 MSTORE SWAP3 PUSH2 0x324 SWAP3 SWAP1 SWAP2 PUSH2 0x41B JUMP JUMPDEST PUSH1 0x40 MLOAD DUP1 SWAP2 SUB SWAP1 LOG1 PUSH1 0x40 DUP1 MLOAD CALLER DUP2 MSTORE CALLVALUE PUSH1 0x20 DUP3 ADD MSTORE PUSH32 0x6EF95F06320E7A25A04A175CA677B7052BDD97131872C2192525A629F51BE770 SWAP2 ADD JUMPDEST PUSH1 0x40 MLOAD DUP1 SWAP2 SUB SWAP1 LOG1 JUMP JUMPDEST CALLER PUSH1 0x0 SWAP1 DUP2 MSTORE PUSH1 0x2 PUSH1 0x20 MSTORE PUSH1 0x40 SWAP1 KECCAK256 SLOAD PUSH1 0xFF AND PUSH2 0x3B7 JUMPI PUSH1 0x40 MLOAD PUSH3 0x461BCD PUSH1 0xE5 SHL DUP2 MSTORE PUSH1 0x20 PUSH1 0x4 DUP3 ADD MSTORE PUSH1 0xE PUSH1 0x24 DUP3 ADD MSTORE PUSH14 0x139BDD081CDD589CD8DC9A589959 PUSH1 0x92 SHL PUSH1 0x44 DUP3 ADD MSTORE PUSH1 0x64 ADD PUSH2 0x1C0 JUMP JUMPDEST CALLER PUSH1 0x0 DUP2 DUP2 MSTORE PUSH1 0x2 PUSH1 0x20 MSTORE PUSH1 0x40 DUP1 DUP3 KECCAK256 DUP1 SLOAD PUSH1 0xFF NOT AND SWAP1 SSTORE MLOAD PUSH1 0x0 DUP1 MLOAD PUSH1 0x20 PUSH2 0x437 DUP4 CODECOPY DUP2 MLOAD SWAP2 MSTORE SWAP3 PUSH2 0x35D SWAP3 SWAP1 SWAP2 PUSH2 0x41B JUMP JUMPDEST PUSH1 0x0 PUSH1 0x20 DUP3 DUP5 SUB SLT ISZERO PUSH2 0x3FD JUMPI PUSH1 0x0 DUP1 REVERT JUMPDEST DUP2 CALLDATALOAD PUSH1 0x1 PUSH1 0x1 PUSH1 0xA0 SHL SUB DUP2 AND DUP2 EQ PUSH2 0x414 JUMPI PUSH1 0x0 DUP1 REVERT JUMPDEST SWAP4 SWAP3 POP POP POP JUMP JUMPDEST PUSH1 0x1 PUSH1 0x1 PUSH1 0xA0 SHL SUB SWAP3 SWAP1 SWAP3 AND DUP3 MSTORE ISZERO ISZERO PUSH1 0x20 DUP3 ADD MSTORE PUSH1 0x40 ADD SWAP1 JUMP INVALID BALANCE LOG3 0x5E 0xBD SWAP11 LOG0 PUSH11 0xCF1069D1D772D47D82346F SHR DUP11 MSIZE 0xBF DUP5 0xD4 JUMPDEST 0xDE PUSH7 0xA963485510A264 PUSH10 0x70667358221220A839D7 0x5E CODESIZE MLOAD PUSH5 0xC52A40F482 0x27 PUSH8 0x824F4CB37950346 CALLDATALOAD PUSH16 0xB7B55E9520B3273564736F6C63430008 MULMOD STOP CALLER "},"methodIdentifiers":{"contractOwner()":"ce606ee0","isSubscribed()":"8a281554","subscribe()":"8f449a05","subscriptionFee()":"0aa0a175","subscriptions(address)":"f046395a","unsubscribe()":"fcae4484","withdrawFunds()":"24600fc3"}}}}}