{
  "_format": "hh-sol-artifact-1",
  "contractName": "SubscriptionModel",
  "sourceName": "contracts/SubscriptionModel.sol",
  "abi": [
    {
      "inputs": [],
      "stateMutability": "nonpayable",
      "type": "constructor"
    },
    {
      "anonymous": false,
      "inputs": [
        {
          "indexed": false,
          "internalType": "address",
          "name": "user",
          "type": "address"
        },
        {
          "indexed": false,
          "internalType": "uint256",
          "name": "amount",
          "type": "uint256"
        }
      ],
      "name": "PaymentReceived",
      "type": "event"
    },
    {
      "anonymous": false,
      "inputs": [
        {
          "indexed": false,
          "internalType": "address",
          "name": "user",
          "type": "address"
        },
        {
          "indexed": false,
          "internalType": "bool",
          "name": "isSubscribed",
          "type": "bool"
        }
      ],
      "name": "SubscriptionStatus",
      "type": "event"
    },
    {
      "inputs": [],
      "name": "contractOwner",
      "outputs": [
        {
          "internalType": "address payable",
          "name": "",
          "type": "address"
        }
      ],
      "stateMutability": "view",
      "type": "function"
    },
    {
      "inputs": [],
      "name": "isSubscribed",
      "outputs": [
        {
          "internalType": "bool",
          "name": "",
          "type": "bool"
        }
      ],
      "stateMutability": "view",
      "type": "function"
    },
    {
      "inputs": [],
      "name": "subscribe",
      "outputs": [],
      "stateMutability": "payable",
      "type": "function"
    },
    {
      "inputs": [],
      "name": "subscriptionFee",
      "outputs": [
        {
          "internalType": "uint256",
          "name": "",
          "type": "uint256"
        }
      ],
      "stateMutability": "view",
      "type": "function"
    },
    {
      "inputs": [
        {
          "internalType": "address",
          "name": "",
          "type": "address"
        }
      ],
      "name": "subscriptions",
      "outputs": [
        {
          "internalType": "bool",
          "name": "",
          "type": "bool"
        }
      ],
      "stateMutability": "view",
      "type": "function"
    },
    {
      "inputs": [],
      "name": "unsubscribe",
      "outputs": [],
      "stateMutability": "nonpayable",
      "type": "function"
    },
    {
      "inputs": [],
      "name": "withdrawFunds",
      "outputs": [],
      "stateMutability": "nonpayable",
      "type": "function"
    }
  ],
  "bytecode": "0x60806040526612d452694f400060015534801561001b57600080fd5b50600080546001600160a01b0319163317905561048c8061003d6000396000f3fe6080604052600436106100605760003560e01c80630aa0a1751461006557806324600fc31461008e5780638a281554146100a55780638f449a05146100d6578063ce606ee0146100de578063f046395a14610116578063fcae448414610146575b600080fd5b34801561007157600080fd5b5061007b60015481565b6040519081526020015b60405180910390f35b34801561009a57600080fd5b506100a361015b565b005b3480156100b157600080fd5b503360009081526002602052604090205460ff165b6040519015158152602001610085565b6100a3610249565b3480156100ea57600080fd5b506000546100fe906001600160a01b031681565b6040516001600160a01b039091168152602001610085565b34801561012257600080fd5b506100c66101313660046103eb565b60026020526000908152604090205460ff1681565b34801561015257600080fd5b506100a3610367565b6000546001600160a01b031633146101c95760405162461bcd60e51b815260206004820152602660248201527f4f6e6c7920636f6e7472616374206f776e65722063616e2077697468647261776044820152652066756e647360d01b60648201526084015b60405180910390fd5b478061020c5760405162461bcd60e51b81526020600482015260126024820152714e6f2066756e647320617661696c61626c6560701b60448201526064016101c0565b600080546040516001600160a01b039091169183156108fc02918491818181858888f19350505050158015610245573d6000803e3d6000fd5b5050565b3360009081526002602052604090205460ff161561029e5760405162461bcd60e51b8152602060048201526012602482015271105b1c9958591e481cdd589cd8dc9a58995960721b60448201526064016101c0565b60015434146102e85760405162461bcd60e51b8152602060048201526016602482015275125b9d985b1a59081c185e5b595b9d08185b5bdd5b9d60521b60448201526064016101c0565b3360008181526002602052604090819020805460ff1916600190811790915590516000805160206104378339815191529261032492909161041b565b60405180910390a1604080513381523460208201527f6ef95f06320e7a25a04a175ca677b7052bdd97131872c2192525a629f51be77091015b60405180910390a1565b3360009081526002602052604090205460ff166103b75760405162461bcd60e51b815260206004820152600e60248201526d139bdd081cdd589cd8dc9a58995960921b60448201526064016101c0565b33600081815260026020526040808220805460ff19169055516000805160206104378339815191529261035d92909161041b565b6000602082840312156103fd57600080fd5b81356001600160a01b038116811461041457600080fd5b9392505050565b6001600160a01b03929092168252151560208201526040019056fe31a35ebd9aa06acf1069d1d772d47d82346f1c8a59bf84d45bde66a963485510a2646970667358221220a839d75e385164c52a40f48227670824f4cb37950346356fb7b55e9520b3273564736f6c63430008090033",
  "linkReferences": {},
  "deployedLinkReferences": {}
}