{
  "_format": "hh-sol-artifact-1",
  "contractName": "SubscriptionContract",
  "sourceName": "contracts/Subscription.sol",
  "abi": [
    {
      "inputs": [
        {
          "internalType": "address",
          "name": "_priceFeed",
          "type": "address"
        }
      ],
      "stateMutability": "nonpayable",
      "type": "constructor"
    },
    {
      "anonymous": false,
      "inputs": [
        {
          "indexed": true,
          "internalType": "address",
          "name": "subscriber",
          "type": "address"
        },
        {
          "indexed": false,
          "internalType": "uint256",
          "name": "timestamp",
          "type": "uint256"
        }
      ],
      "name": "SubscriptionCancelled",
      "type": "event"
    },
    {
      "anonymous": false,
      "inputs": [
        {
          "indexed": true,
          "internalType": "address",
          "name": "subscriber",
          "type": "address"
        },
        {
          "indexed": false,
          "internalType": "uint256",
          "name": "timestamp",
          "type": "uint256"
        }
      ],
      "name": "SubscriptionRenewed",
      "type": "event"
    },
    {
      "inputs": [
        {
          "internalType": "address",
          "name": "subscriber",
          "type": "address"
        }
      ],
      "name": "isSubscribed",
      "outputs": [
        {
          "internalType": "bool",
          "name": "",
          "type": "bool"
        }
      ],
      "stateMutability": "view",
      "type": "function"
    },
    {
      "inputs": [],
      "name": "owner",
      "outputs": [
        {
          "internalType": "address",
          "name": "",
          "type": "address"
        }
      ],
      "stateMutability": "view",
      "type": "function"
    },
    {
      "inputs": [],
      "name": "priceFeed",
      "outputs": [
        {
          "internalType": "contract AggregatorV3Interface",
          "name": "",
          "type": "address"
        }
      ],
      "stateMutability": "view",
      "type": "function"
    },
    {
      "inputs": [
        {
          "internalType": "uint256",
          "name": "newFee",
          "type": "uint256"
        }
      ],
      "name": "setSubscriptionFee",
      "outputs": [],
      "stateMutability": "nonpayable",
      "type": "function"
    },
    {
      "inputs": [],
      "name": "subscribe",
      "outputs": [],
      "stateMutability": "nonpayable",
      "type": "function"
    },
    {
      "inputs": [
        {
          "internalType": "address",
          "name": "",
          "type": "address"
        }
      ],
      "name": "subscribers",
      "outputs": [
        {
          "internalType": "bool",
          "name": "",
          "type": "bool"
        }
      ],
      "stateMutability": "view",
      "type": "function"
    },
    {
      "inputs": [],
      "name": "subscriptionFee",
      "outputs": [
        {
          "internalType": "uint256",
          "name": "",
          "type": "uint256"
        }
      ],
      "stateMutability": "view",
      "type": "function"
    },
    {
      "inputs": [],
      "name": "unsubscribe",
      "outputs": [],
      "stateMutability": "nonpayable",
      "type": "function"
    }
  ],
  "bytecode": "0x608060405234801561001057600080fd5b5060405161066038038061066083398101604081905261002f91610070565b60008054336001600160a01b03199182161790915569021d8f19a6b628580000600255600380549091166001600160a01b03929092169190911790556100a0565b60006020828403121561008257600080fd5b81516001600160a01b038116811461009957600080fd5b9392505050565b6105b1806100af6000396000f3fe608060405234801561001057600080fd5b50600436106100785760003560e01c80630aa0a1751461007d5780635745ae28146100995780636ac84956146100cc578063741bef1a146100e15780638da5cb5b1461010c5780638f449a051461011f578063b92ae87c14610127578063fcae448414610153575b600080fd5b61008660025481565b6040519081526020015b60405180910390f35b6100bc6100a7366004610477565b60016020526000908152604090205460ff1681565b6040519015158152602001610090565b6100df6100da3660046104a7565b61015b565b005b6003546100f4906001600160a01b031681565b6040516001600160a01b039091168152602001610090565b6000546100f4906001600160a01b031681565b6100df6101d6565b6100bc610135366004610477565b6001600160a01b031660009081526001602052604090205460ff1690565b6100df6102d6565b6000546001600160a01b031633146101d15760405162461bcd60e51b815260206004820152602e60248201527f4f6e6c792074686520636f6e7472616374206f776e65722063616e2063616c6c60448201526d103a3434b990333ab731ba34b7b760911b60648201526084015b60405180910390fd5b600255565b3360009081526001602052604090205460ff161561022b5760405162461bcd60e51b8152602060048201526012602482015271105b1c9958591e481cdd589cd8dc9a58995960721b60448201526064016101c8565b60025461023661036f565b10156102845760405162461bcd60e51b815260206004820152601f60248201527f496e73756666696369656e742066756e647320746f207375627363726962650060448201526064016101c8565b33600081815260016020818152604092839020805460ff191690921790915590514281527f0e3bc79b6527253ae333c773455df588f62bcc1ad9726d42dbdc179356232a6091015b60405180910390a2565b3360009081526001602052604090205460ff166103265760405162461bcd60e51b815260206004820152600e60248201526d139bdd081cdd589cd8dc9a58995960921b60448201526064016101c8565b3360008181526001602052604090819020805460ff19169055517f06aa12c0ad65927b4a753d119c26e490d3c4a4e11cb631b43131a709dc1e5917906102cc9042815260200190565b600080600360009054906101000a90046001600160a01b03166001600160a01b031663feaf968c6040518163ffffffff1660e01b815260040160a06040518083038186803b1580156103c057600080fd5b505afa1580156103d4573d6000803e3d6000fd5b505050506040513d601f19601f820116820180604052508101906103f891906104dc565b505050915050600081136104435760405162461bcd60e51b8152602060048201526012602482015271125b9d985b1a59081c1c9a58d9481999595960721b60448201526064016101c8565b600061045082606461052c565b90506305f5e100610466826402540be40061052c565b6104709190610559565b9250505090565b60006020828403121561048957600080fd5b81356001600160a01b03811681146104a057600080fd5b9392505050565b6000602082840312156104b957600080fd5b5035919050565b80516001600160501b03811681146104d757600080fd5b919050565b600080600080600060a086880312156104f457600080fd5b6104fd866104c0565b9450602086015193506040860151925060608601519150610520608087016104c0565b90509295509295909350565b600081600019048311821515161561055457634e487b7160e01b600052601160045260246000fd5b500290565b60008261057657634e487b7160e01b600052601260045260246000fd5b50049056fea264697066735822122058a8527e67a8151f623449cb82c8a53e43df547d0e0f840733cbbcdbaebd8c0c64736f6c63430008090033",
  "linkReferences": {},
  "deployedLinkReferences": {}
}